{
  "contractName": "Token",
  "abi": [
    {
      "inputs": [],
      "stateMutability": "nonpayable",
      "type": "constructor"
    },
    {
      "inputs": [
        {
          "internalType": "address",
          "name": "",
          "type": "address"
        }
      ],
      "name": "balances",
      "outputs": [
        {
          "internalType": "uint256",
          "name": "",
          "type": "uint256"
        }
      ],
      "stateMutability": "view",
      "type": "function"
    },
    {
      "inputs": [],
      "name": "decimals",
      "outputs": [
        {
          "internalType": "uint8",
          "name": "",
          "type": "uint8"
        }
      ],
      "stateMutability": "view",
      "type": "function"
    },
    {
      "inputs": [],
      "name": "name",
      "outputs": [
        {
          "internalType": "string",
          "name": "",
          "type": "string"
        }
      ],
      "stateMutability": "view",
      "type": "function"
    },
    {
      "inputs": [],
      "name": "symbol",
      "outputs": [
        {
          "internalType": "string",
          "name": "",
          "type": "string"
        }
      ],
      "stateMutability": "view",
      "type": "function"
    },
    {
      "inputs": [],
      "name": "totalSupply",
      "outputs": [
        {
          "internalType": "uint256",
          "name": "",
          "type": "uint256"
        }
      ],
      "stateMutability": "view",
      "type": "function"
    },
    {
      "inputs": [
        {
          "internalType": "address",
          "name": "owner",
          "type": "address"
        }
      ],
      "name": "balanceOf",
      "outputs": [
        {
          "internalType": "uint256",
          "name": "balance",
          "type": "uint256"
        }
      ],
      "stateMutability": "view",
      "type": "function"
    },
    {
      "inputs": [
        {
          "internalType": "uint256",
          "name": "amount",
          "type": "uint256"
        }
      ],
      "name": "buyApple",
      "outputs": [
        {
          "internalType": "bool",
          "name": "success",
          "type": "bool"
        }
      ],
      "stateMutability": "nonpayable",
      "type": "function"
    }
  ],
  "bytecode": "0x60806040526040518060400160405280600a81526020017f4170706c6520436f696e00000000000000000000000000000000000000000000815250600190816200004a9190620003b1565b506040518060400160405280600381526020017f41504c000000000000000000000000000000000000000000000000000000000081525060029081620000919190620003b1565b506005600360006101000a81548160ff021916908360ff160217905550600360009054906101000a900460ff16600a620000cc919062000628565b612710620000db919062000679565b600455348015620000eb57600080fd5b506004546000803373ffffffffffffffffffffffffffffffffffffffff1673ffffffffffffffffffffffffffffffffffffffff16815260200190815260200160002081905550620006c4565b600081519050919050565b7f4e487b7100000000000000000000000000000000000000000000000000000000600052604160045260246000fd5b7f4e487b7100000000000000000000000000000000000000000000000000000000600052602260045260246000fd5b60006002820490506001821680620001b957607f821691505b602082108103620001cf57620001ce62000171565b5b50919050565b60008190508160005260206000209050919050565b60006020601f8301049050919050565b600082821b905092915050565b600060088302620002397fffffffffffffffffffffffffffffffffffffffffffffffffffffffffffffffff82620001fa565b620002458683620001fa565b95508019841693508086168417925050509392505050565b6000819050919050565b6000819050919050565b6000620002926200028c62000286846200025d565b62000267565b6200025d565b9050919050565b6000819050919050565b620002ae8362000271565b620002c6620002bd8262000299565b84845462000207565b825550505050565b600090565b620002dd620002ce565b620002ea818484620002a3565b505050565b5b81811015620003125762000306600082620002d3565b600181019050620002f0565b5050565b601f82111562000361576200032b81620001d5565b6200033684620001ea565b8101602085101562000346578190505b6200035e6200035585620001ea565b830182620002ef565b50505b505050565b600082821c905092915050565b6000620003866000198460080262000366565b1980831691505092915050565b6000620003a1838362000373565b9150826002028217905092915050565b620003bc8262000137565b67ffffffffffffffff811115620003d857620003d762000142565b5b620003e48254620001a0565b620003f182828562000316565b600060209050601f83116001811462000429576000841562000414578287015190505b62000420858262000393565b86555062000490565b601f1984166200043986620001d5565b60005b8281101562000463578489015182556001820191506020850194506020810190506200043c565b868310156200048357848901516200047f601f89168262000373565b8355505b6001600288020188555050505b505050505050565b7f4e487b7100000000000000000000000000000000000000000000000000000000600052601160045260246000fd5b60008160011c9050919050565b6000808291508390505b60018511156200052657808604811115620004fe57620004fd62000498565b5b60018516156200050e5780820291505b80810290506200051e85620004c7565b9450620004de565b94509492505050565b60008262000541576001905062000614565b8162000551576000905062000614565b81600181146200056a57600281146200057557620005ab565b600191505062000614565b60ff8411156200058a576200058962000498565b5b8360020a915084821115620005a457620005a362000498565b5b5062000614565b5060208310610133831016604e8410600b8410161715620005e55782820a905083811115620005df57620005de62000498565b5b62000614565b620005f48484846001620004d4565b925090508184048111156200060e576200060d62000498565b5b81810290505b9392505050565b600060ff82169050919050565b600062000635826200025d565b915062000642836200061b565b9250620006717fffffffffffffffffffffffffffffffffffffffffffffffffffffffffffffffff84846200052f565b905092915050565b600062000686826200025d565b915062000693836200025d565b9250828202620006a3816200025d565b91508282048414831517620006bd57620006bc62000498565b5b5092915050565b61075280620006d46000396000f3fe608060405234801561001057600080fd5b506004361061007d5760003560e01c80632b92f62c1161005b5780632b92f62c146100ee578063313ce5671461011e57806370a082311461013c57806395d89b411461016c5761007d565b806306fdde031461008257806318160ddd146100a057806327e235e3146100be575b600080fd5b61008a61018a565b604051610097919061046b565b60405180910390f35b6100a8610218565b6040516100b591906104a6565b60405180910390f35b6100d860048036038101906100d39190610524565b61021e565b6040516100e591906104a6565b60405180910390f35b6101086004803603810190610103919061057d565b610236565b60405161011591906105c5565b60405180910390f35b6101266102f2565b60405161013391906105fc565b60405180910390f35b61015660048036038101906101519190610524565b610305565b60405161016391906104a6565b60405180910390f35b61017461034d565b604051610181919061046b565b60405180910390f35b6001805461019790610646565b80601f01602080910402602001604051908101604052809291908181526020018280546101c390610646565b80156102105780601f106101e557610100808354040283529160200191610210565b820191906000526020600020905b8154815290600101906020018083116101f357829003601f168201915b505050505081565b60045481565b60006020528060005260406000206000915090505481565b60008060648361024691906106a6565b9050806000803373ffffffffffffffffffffffffffffffffffffffff1673ffffffffffffffffffffffffffffffffffffffff16815260200190815260200160002054101561029357600080fd5b806000803373ffffffffffffffffffffffffffffffffffffffff1673ffffffffffffffffffffffffffffffffffffffff16815260200190815260200160002060008282546102e191906106e8565b925050819055506001915050919050565b600360009054906101000a900460ff1681565b60008060008373ffffffffffffffffffffffffffffffffffffffff1673ffffffffffffffffffffffffffffffffffffffff168152602001908152602001600020549050919050565b6002805461035a90610646565b80601f016020809104026020016040519081016040528092919081815260200182805461038690610646565b80156103d35780601f106103a8576101008083540402835291602001916103d3565b820191906000526020600020905b8154815290600101906020018083116103b657829003601f168201915b505050505081565b600081519050919050565b600082825260208201905092915050565b60005b838110156104155780820151818401526020810190506103fa565b60008484015250505050565b6000601f19601f8301169050919050565b600061043d826103db565b61044781856103e6565b93506104578185602086016103f7565b61046081610421565b840191505092915050565b600060208201905081810360008301526104858184610432565b905092915050565b6000819050919050565b6104a08161048d565b82525050565b60006020820190506104bb6000830184610497565b92915050565b600080fd5b600073ffffffffffffffffffffffffffffffffffffffff82169050919050565b60006104f1826104c6565b9050919050565b610501816104e6565b811461050c57600080fd5b50565b60008135905061051e816104f8565b92915050565b60006020828403121561053a576105396104c1565b5b60006105488482850161050f565b91505092915050565b61055a8161048d565b811461056557600080fd5b50565b60008135905061057781610551565b92915050565b600060208284031215610593576105926104c1565b5b60006105a184828501610568565b91505092915050565b60008115159050919050565b6105bf816105aa565b82525050565b60006020820190506105da60008301846105b6565b92915050565b600060ff82169050919050565b6105f6816105e0565b82525050565b600060208201905061061160008301846105ed565b92915050565b7f4e487b7100000000000000000000000000000000000000000000000000000000600052602260045260246000fd5b6000600282049050600182168061065e57607f821691505b60208210810361067157610670610617565b5b50919050565b7f4e487b7100000000000000000000000000000000000000000000000000000000600052601160045260246000fd5b60006106b18261048d565b91506106bc8361048d565b92508282026106ca8161048d565b915082820484148315176106e1576106e0610677565b5b5092915050565b60006106f38261048d565b91506106fe8361048d565b925082820390508181111561071657610715610677565b5b9291505056fea26469706673582212201336765181fed7fbfc79a9b00ba3f660dcafa2afce5a336a40dff90e8d421bec64736f6c63430008110033",
  "immutableReferences": {},
  "source": " // SPDX-License-Identifier: MIT\npragma solidity ^0.8.17;\n\ncontract Token{\n    mapping(address => uint256) public balances;\n    string public name = \"Apple Coin\"; //  \n    string public symbol = \"APL\"; // \n    uint8 public decimals = 5; // \n    uint256 public totalSupply = 10000 * 10 ** decimals; // ()\n\n    constructor(){\n        balances[msg.sender] = totalSupply;\n    }\n\n    function balanceOf(address owner) public view returns(uint256 balance){\n        return balances[owner];\n    }\n\n    function buyApple(uint amount) public returns(bool success){\n        uint value = amount * 100;\n        require(balances[msg.sender] >= value);\n        balances[msg.sender] -= value;\n        // balances[to] += value;\n        return true;\n    }\n}\n",
  "sourcePath": "/Users/ssup/Desktop/BlockChain Academy/Class/20221130/contracts/Token.sol",
  "compiler": {
    "name": "solc",
    "version": "0.8.17+commit.8df45f5f.Emscripten.clang"
  },
  "schemaVersion": "3.4.11",
  "updatedAt": "2022-12-01T03:16:57.094Z",
  "devdoc": {
    "kind": "dev",
    "methods": {},
    "version": 1
  },
  "userdoc": {
    "kind": "user",
    "methods": {},
    "version": 1
  }
}