{
  "contractName": "FruitsShop",
  "abi": [
    {
      "inputs": [],
      "stateMutability": "nonpayable",
      "type": "constructor"
    },
    {
      "inputs": [
        {
          "internalType": "address",
          "name": "",
          "type": "address"
        }
      ],
      "name": "balances",
      "outputs": [
        {
          "internalType": "uint256",
          "name": "",
          "type": "uint256"
        }
      ],
      "stateMutability": "view",
      "type": "function",
      "constant": true
    },
    {
      "inputs": [],
      "name": "decimals",
      "outputs": [
        {
          "internalType": "uint8",
          "name": "",
          "type": "uint8"
        }
      ],
      "stateMutability": "view",
      "type": "function",
      "constant": true
    },
    {
      "inputs": [],
      "name": "name",
      "outputs": [
        {
          "internalType": "string",
          "name": "",
          "type": "string"
        }
      ],
      "stateMutability": "view",
      "type": "function",
      "constant": true
    },
    {
      "inputs": [],
      "name": "symbol",
      "outputs": [
        {
          "internalType": "string",
          "name": "",
          "type": "string"
        }
      ],
      "stateMutability": "view",
      "type": "function",
      "constant": true
    },
    {
      "inputs": [],
      "name": "totalSupply",
      "outputs": [
        {
          "internalType": "uint256",
          "name": "",
          "type": "uint256"
        }
      ],
      "stateMutability": "view",
      "type": "function",
      "constant": true
    },
    {
      "inputs": [
        {
          "internalType": "address",
          "name": "owner",
          "type": "address"
        }
      ],
      "name": "balanceOf",
      "outputs": [
        {
          "internalType": "uint256",
          "name": "",
          "type": "uint256"
        }
      ],
      "stateMutability": "view",
      "type": "function",
      "constant": true
    },
    {
      "inputs": [
        {
          "internalType": "uint256",
          "name": "amount",
          "type": "uint256"
        }
      ],
      "name": "buyApple",
      "outputs": [],
      "stateMutability": "payable",
      "type": "function",
      "payable": true
    },
    {
      "inputs": [
        {
          "internalType": "uint256",
          "name": "amount",
          "type": "uint256"
        }
      ],
      "name": "buyGrape",
      "outputs": [],
      "stateMutability": "payable",
      "type": "function",
      "payable": true
    },
    {
      "inputs": [
        {
          "internalType": "uint256",
          "name": "amount",
          "type": "uint256"
        }
      ],
      "name": "buyPear",
      "outputs": [],
      "stateMutability": "payable",
      "type": "function",
      "payable": true
    },
    {
      "inputs": [
        {
          "internalType": "uint256",
          "name": "amount",
          "type": "uint256"
        },
        {
          "internalType": "uint256",
          "name": "price",
          "type": "uint256"
        }
      ],
      "name": "buyAppleByToken",
      "outputs": [
        {
          "internalType": "bool",
          "name": "isSuccess",
          "type": "bool"
        }
      ],
      "stateMutability": "nonpayable",
      "type": "function"
    },
    {
      "inputs": [
        {
          "internalType": "uint256",
          "name": "applePrice",
          "type": "uint256"
        }
      ],
      "name": "sellApple",
      "outputs": [],
      "stateMutability": "payable",
      "type": "function",
      "payable": true
    },
    {
      "inputs": [
        {
          "internalType": "uint256",
          "name": "grapePrice",
          "type": "uint256"
        }
      ],
      "name": "sellGrape",
      "outputs": [],
      "stateMutability": "payable",
      "type": "function",
      "payable": true
    },
    {
      "inputs": [
        {
          "internalType": "uint256",
          "name": "pearPrice",
          "type": "uint256"
        }
      ],
      "name": "sellPear",
      "outputs": [],
      "stateMutability": "payable",
      "type": "function",
      "payable": true
    },
    {
      "inputs": [],
      "name": "getApple",
      "outputs": [
        {
          "internalType": "uint256",
          "name": "",
          "type": "uint256"
        }
      ],
      "stateMutability": "view",
      "type": "function",
      "constant": true
    },
    {
      "inputs": [],
      "name": "getGrape",
      "outputs": [
        {
          "internalType": "uint256",
          "name": "",
          "type": "uint256"
        }
      ],
      "stateMutability": "view",
      "type": "function",
      "constant": true
    },
    {
      "inputs": [],
      "name": "getPear",
      "outputs": [
        {
          "internalType": "uint256",
          "name": "",
          "type": "uint256"
        }
      ],
      "stateMutability": "view",
      "type": "function",
      "constant": true
    },
    {
      "inputs": [],
      "name": "getMsgSender",
      "outputs": [
        {
          "internalType": "address",
          "name": "",
          "type": "address"
        }
      ],
      "stateMutability": "view",
      "type": "function",
      "constant": true
    },
    {
      "inputs": [],
      "name": "getTxOrigin",
      "outputs": [
        {
          "internalType": "address",
          "name": "",
          "type": "address"
        }
      ],
      "stateMutability": "view",
      "type": "function",
      "constant": true
    }
  ],
  "bytecode": "0x60806040526040518060400160405280600a81526020017f4170706c6520436f696e00000000000000000000000000000000000000000000815250600490816200004a919062000414565b506040518060400160405280600381526020017f41504c00000000000000000000000000000000000000000000000000000000008152506005908162000091919062000414565b506012600660006101000a81548160ff021916908360ff160217905550600660009054906101000a900460ff16600a620000cc91906200068b565b612710620000db9190620006dc565b600755348015620000eb57600080fd5b506002600754620000fd919062000756565b600360003373ffffffffffffffffffffffffffffffffffffffff1673ffffffffffffffffffffffffffffffffffffffff16815260200190815260200160002081905550600260075462000151919062000756565b600360003073ffffffffffffffffffffffffffffffffffffffff1673ffffffffffffffffffffffffffffffffffffffff168152602001908152602001600020819055506200078e565b600081519050919050565b7f4e487b7100000000000000000000000000000000000000000000000000000000600052604160045260246000fd5b7f4e487b7100000000000000000000000000000000000000000000000000000000600052602260045260246000fd5b600060028204905060018216806200021c57607f821691505b602082108103620002325762000231620001d4565b5b50919050565b60008190508160005260206000209050919050565b60006020601f8301049050919050565b600082821b905092915050565b6000600883026200029c7fffffffffffffffffffffffffffffffffffffffffffffffffffffffffffffffff826200025d565b620002a886836200025d565b95508019841693508086168417925050509392505050565b6000819050919050565b6000819050919050565b6000620002f5620002ef620002e984620002c0565b620002ca565b620002c0565b9050919050565b6000819050919050565b6200031183620002d4565b620003296200032082620002fc565b8484546200026a565b825550505050565b600090565b6200034062000331565b6200034d81848462000306565b505050565b5b8181101562000375576200036960008262000336565b60018101905062000353565b5050565b601f821115620003c4576200038e8162000238565b62000399846200024d565b81016020851015620003a9578190505b620003c1620003b8856200024d565b83018262000352565b50505b505050565b600082821c905092915050565b6000620003e960001984600802620003c9565b1980831691505092915050565b6000620004048383620003d6565b9150826002028217905092915050565b6200041f826200019a565b67ffffffffffffffff8111156200043b576200043a620001a5565b5b62000447825462000203565b6200045482828562000379565b600060209050601f8311600181146200048c576000841562000477578287015190505b620004838582620003f6565b865550620004f3565b601f1984166200049c8662000238565b60005b82811015620004c6578489015182556001820191506020850194506020810190506200049f565b86831015620004e65784890151620004e2601f891682620003d6565b8355505b6001600288020188555050505b505050505050565b7f4e487b7100000000000000000000000000000000000000000000000000000000600052601160045260246000fd5b60008160011c9050919050565b6000808291508390505b60018511156200058957808604811115620005615762000560620004fb565b5b6001851615620005715780820291505b808102905062000581856200052a565b945062000541565b94509492505050565b600082620005a4576001905062000677565b81620005b4576000905062000677565b8160018114620005cd5760028114620005d8576200060e565b600191505062000677565b60ff841115620005ed57620005ec620004fb565b5b8360020a915084821115620006075762000606620004fb565b5b5062000677565b5060208310610133831016604e8410600b8410161715620006485782820a905083811115620006425762000641620004fb565b5b62000677565b62000657848484600162000537565b92509050818404811115620006715762000670620004fb565b5b81810290505b9392505050565b600060ff82169050919050565b60006200069882620002c0565b9150620006a5836200067e565b9250620006d47fffffffffffffffffffffffffffffffffffffffffffffffffffffffffffffffff848462000592565b905092915050565b6000620006e982620002c0565b9150620006f683620002c0565b92508282026200070681620002c0565b9150828204841483151762000720576200071f620004fb565b5b5092915050565b7f4e487b7100000000000000000000000000000000000000000000000000000000600052601260045260246000fd5b60006200076382620002c0565b91506200077083620002c0565b92508262000783576200078262000727565b5b828204905092915050565b611037806200079e6000396000f3fe6080604052600436106101095760003560e01c806354b862f7116100955780638a4b1ace116100645780638a4b1ace1461034657806395d89b4114610362578063b8077e281461038d578063cb52bb93146103b8578063db54b74c146103d457610109565b806354b862f7146102a657806370a08231146102c25780637a6ce2e1146102ff5780637f3bf9f11461032a57610109565b80632b92f62c116100dc5780632b92f62c146101cc578063313ce567146101e85780633ee9ecd014610213578063453ccd751461023e5780634746ab701461027b57610109565b806306fdde031461010e578063143fe5a51461013957806318160ddd1461016457806327e235e31461018f575b600080fd5b34801561011a57600080fd5b506101236103f0565b6040516101309190610c46565b60405180910390f35b34801561014557600080fd5b5061014e61047e565b60405161015b9190610c81565b60405180910390f35b34801561017057600080fd5b506101796104c4565b6040516101869190610c81565b60405180910390f35b34801561019b57600080fd5b506101b660048036038101906101b19190610cff565b6104ca565b6040516101c39190610c81565b60405180910390f35b6101e660048036038101906101e19190610d58565b6104e2565b005b3480156101f457600080fd5b506101fd61053a565b60405161020a9190610da1565b60405180910390f35b34801561021f57600080fd5b5061022861054d565b6040516102359190610c81565b60405180910390f35b34801561024a57600080fd5b5061026560048036038101906102609190610dbc565b610594565b6040516102729190610e17565b60405180910390f35b34801561028757600080fd5b5061029061073b565b60405161029d9190610c81565b60405180910390f35b6102c060048036038101906102bb9190610d58565b610782565b005b3480156102ce57600080fd5b506102e960048036038101906102e49190610cff565b610861565b6040516102f69190610c81565b60405180910390f35b34801561030b57600080fd5b506103146108aa565b6040516103219190610e41565b60405180910390f35b610344600480360381019061033f9190610d58565b6108b2565b005b610360600480360381019061035b9190610d58565b61090b565b005b34801561036e57600080fd5b506103776109ea565b6040516103849190610c46565b60405180910390f35b34801561039957600080fd5b506103a2610a78565b6040516103af9190610e41565b60405180910390f35b6103d260048036038101906103cd9190610d58565b610a80565b005b6103ee60048036038101906103e99190610d58565b610ad9565b005b600480546103fd90610e8b565b80601f016020809104026020016040519081016040528092919081815260200182805461042990610e8b565b80156104765780601f1061044b57610100808354040283529160200191610476565b820191906000526020600020905b81548152906001019060200180831161045957829003601f168201915b505050505081565b60008060003373ffffffffffffffffffffffffffffffffffffffff1673ffffffffffffffffffffffffffffffffffffffff16815260200190815260200160002054905090565b60075481565b60036020528060005260406000206000915090505481565b806000803373ffffffffffffffffffffffffffffffffffffffff1673ffffffffffffffffffffffffffffffffffffffff16815260200190815260200160002060008282546105309190610eeb565b9250508190555050565b600660009054906101000a900460ff1681565b6000600160003373ffffffffffffffffffffffffffffffffffffffff1673ffffffffffffffffffffffffffffffffffffffff16815260200190815260200160002054905090565b600080670de0b6b3a7640000836105ab9190610f1f565b905080600360003373ffffffffffffffffffffffffffffffffffffffff1673ffffffffffffffffffffffffffffffffffffffff16815260200190815260200160002054101561062f576040517f08c379a000000000000000000000000000000000000000000000000000000000815260040161062690610fad565b60405180910390fd5b836000803373ffffffffffffffffffffffffffffffffffffffff1673ffffffffffffffffffffffffffffffffffffffff168152602001908152602001600020600082825461067d9190610eeb565b9250508190555080600360003373ffffffffffffffffffffffffffffffffffffffff1673ffffffffffffffffffffffffffffffffffffffff16815260200190815260200160002060008282546106d39190610fcd565b9250508190555080600360003073ffffffffffffffffffffffffffffffffffffffff1673ffffffffffffffffffffffffffffffffffffffff16815260200190815260200160002060008282546107299190610eeb565b92505081905550600191505092915050565b6000600260003373ffffffffffffffffffffffffffffffffffffffff1673ffffffffffffffffffffffffffffffffffffffff16815260200190815260200160002054905090565b600081600160003373ffffffffffffffffffffffffffffffffffffffff1673ffffffffffffffffffffffffffffffffffffffff168152602001908152602001600020546107cf9190610f1f565b90506000600160003373ffffffffffffffffffffffffffffffffffffffff1673ffffffffffffffffffffffffffffffffffffffff168152602001908152602001600020819055503373ffffffffffffffffffffffffffffffffffffffff166108fc829081150290604051600060405180830381858888f1935050505015801561085c573d6000803e3d6000fd5b505050565b6000600360008373ffffffffffffffffffffffffffffffffffffffff1673ffffffffffffffffffffffffffffffffffffffff168152602001908152602001600020549050919050565b600033905090565b80600160003373ffffffffffffffffffffffffffffffffffffffff1673ffffffffffffffffffffffffffffffffffffffff16815260200190815260200160002060008282546109019190610eeb565b9250508190555050565b600081600260003373ffffffffffffffffffffffffffffffffffffffff1673ffffffffffffffffffffffffffffffffffffffff168152602001908152602001600020546109589190610f1f565b90506000600260003373ffffffffffffffffffffffffffffffffffffffff1673ffffffffffffffffffffffffffffffffffffffff168152602001908152602001600020819055503373ffffffffffffffffffffffffffffffffffffffff166108fc829081150290604051600060405180830381858888f193505050501580156109e5573d6000803e3d6000fd5b505050565b600580546109f790610e8b565b80601f0160208091040260200160405190810160405280929190818152602001828054610a2390610e8b565b8015610a705780601f10610a4557610100808354040283529160200191610a70565b820191906000526020600020905b815481529060010190602001808311610a5357829003601f168201915b505050505081565b600030905090565b80600260003373ffffffffffffffffffffffffffffffffffffffff1673ffffffffffffffffffffffffffffffffffffffff1681526020019081526020016000206000828254610acf9190610eeb565b9250508190555050565b6000816000803373ffffffffffffffffffffffffffffffffffffffff1673ffffffffffffffffffffffffffffffffffffffff16815260200190815260200160002054610b259190610f1f565b905060008060003373ffffffffffffffffffffffffffffffffffffffff1673ffffffffffffffffffffffffffffffffffffffff168152602001908152602001600020819055503373ffffffffffffffffffffffffffffffffffffffff166108fc829081150290604051600060405180830381858888f19350505050158015610bb1573d6000803e3d6000fd5b505050565b600081519050919050565b600082825260208201905092915050565b60005b83811015610bf0578082015181840152602081019050610bd5565b60008484015250505050565b6000601f19601f8301169050919050565b6000610c1882610bb6565b610c228185610bc1565b9350610c32818560208601610bd2565b610c3b81610bfc565b840191505092915050565b60006020820190508181036000830152610c608184610c0d565b905092915050565b6000819050919050565b610c7b81610c68565b82525050565b6000602082019050610c966000830184610c72565b92915050565b600080fd5b600073ffffffffffffffffffffffffffffffffffffffff82169050919050565b6000610ccc82610ca1565b9050919050565b610cdc81610cc1565b8114610ce757600080fd5b50565b600081359050610cf981610cd3565b92915050565b600060208284031215610d1557610d14610c9c565b5b6000610d2384828501610cea565b91505092915050565b610d3581610c68565b8114610d4057600080fd5b50565b600081359050610d5281610d2c565b92915050565b600060208284031215610d6e57610d6d610c9c565b5b6000610d7c84828501610d43565b91505092915050565b600060ff82169050919050565b610d9b81610d85565b82525050565b6000602082019050610db66000830184610d92565b92915050565b60008060408385031215610dd357610dd2610c9c565b5b6000610de185828601610d43565b9250506020610df285828601610d43565b9150509250929050565b60008115159050919050565b610e1181610dfc565b82525050565b6000602082019050610e2c6000830184610e08565b92915050565b610e3b81610cc1565b82525050565b6000602082019050610e566000830184610e32565b92915050565b7f4e487b7100000000000000000000000000000000000000000000000000000000600052602260045260246000fd5b60006002820490506001821680610ea357607f821691505b602082108103610eb657610eb5610e5c565b5b50919050565b7f4e487b7100000000000000000000000000000000000000000000000000000000600052601160045260246000fd5b6000610ef682610c68565b9150610f0183610c68565b9250828201905080821115610f1957610f18610ebc565b5b92915050565b6000610f2a82610c68565b9150610f3583610c68565b9250828202610f4381610c68565b91508282048414831517610f5a57610f59610ebc565b5b5092915050565b7f6e6f7420656e6f7567682062616c616365000000000000000000000000000000600082015250565b6000610f97601183610bc1565b9150610fa282610f61565b602082019050919050565b60006020820190508181036000830152610fc681610f8a565b9050919050565b6000610fd882610c68565b9150610fe383610c68565b9250828203905081811115610ffb57610ffa610ebc565b5b9291505056fea26469706673582212202f5661bdc973e25dd94b4595f7499a3916800965297533239312f0838e7ecb7d64736f6c63430008110033",
  "immutableReferences": {},
  "source": "// SPDX-License-Identifier: MIT\npragma solidity ^0.8.17;\n\ncontract FruitsShop {\n    // address , uint , myApple  \n    mapping(address => uint) myApple;\n    // myApple = {\n    //  : (),\n    //  : ()\n    // }\n\n    // payable   CA ETH  .\n    //   value ETH  .\n    //   \n    mapping(address => uint) myGrape;\n    mapping(address => uint) myPear;\n    mapping(address => uint256) public balances;\n    string public name = \"Apple Coin\";\n    string public symbol = \"APL\"; \n    uint8 public decimals = 18; \n    uint256 public totalSupply = 10000 * 10 ** decimals; \n\n    constructor(){\n        balances[msg.sender] = totalSupply / 2;\n        balances[address(this)] = totalSupply / 2;\n    }\n    \n    function balanceOf(address owner) public view returns(uint256 ){\n        //       \n        return balances[owner];\n    }\n \n    //  \n\n    function buyApple(uint amount) public payable {\n        myApple[msg.sender] += amount;\n    }\n    function buyGrape(uint amount) public payable {\n        myGrape[msg.sender] += amount;\n    }\n    function buyPear(uint amount) public payable {\n        myPear[msg.sender] += amount;\n    }\n\n    function buyAppleByToken(uint amount, uint price) public returns(bool isSuccess){\n        uint tokenAmount = price * 10 ** 18;\n        // require(balances[msg.sender] >= tokenAmount);\n        require(balances[msg.sender] >= tokenAmount, \"not enough balace\"); //    \n        // if(balances[msg.sender] >= tokenAmount){\n        //     revert('not enough balance');\n        // }\n        myApple[msg.sender] += amount;\n        balances[msg.sender] -= tokenAmount;\n        // address(this) =>  \n        balances[address(this)] += tokenAmount;\n        isSuccess = true;\n        return isSuccess;\n    } \n\n    function sellApple(uint applePrice) public payable{\n        uint256 refund = myApple[msg.sender] * applePrice;\n        myApple[msg.sender] = 0;\n        // payable    .\n        //     .\n        //    \n        payable(msg.sender).transfer(refund);\n    }\n    function sellGrape(uint grapePrice) public payable{\n        uint256 refund = myGrape[msg.sender] * grapePrice;\n        myGrape[msg.sender] = 0;\n        payable(msg.sender).transfer(refund);\n    }\n    function sellPear(uint pearPrice) public payable{\n        uint256 refund = myPear[msg.sender] * pearPrice;\n        myPear[msg.sender] = 0;\n        payable(msg.sender).transfer(refund);\n    }\n\n    //    \n    function getApple() view public returns (uint){\n        return myApple[msg.sender];\n    }\n    function getGrape() view public returns (uint){\n        return myGrape[msg.sender];\n    }\n    function getPear() view public returns (uint){\n        return myPear[msg.sender];\n    }\n\n    //  \n    // function switchCoin(){}\n\n    function getMsgSender() view public returns (address){\n        return msg.sender;\n    }\n    // function getTxOrigin() view public returns (address){\n    //     return tx.origin;\n    // }\n    function getTxOrigin() view public returns (address){\n        return address(this);\n    }\n    \n\n\n}\n",
  "sourcePath": "/Users/ssup/Desktop/BlockChain Academy/Class/20221130/contracts/FruitsShop.sol",
  "compiler": {
    "name": "solc",
    "version": "0.8.17+commit.8df45f5f.Emscripten.clang"
  },
  "schemaVersion": "3.4.11",
  "updatedAt": "2022-12-01T07:31:20.745Z",
  "networkType": "ethereum",
  "devdoc": {
    "kind": "dev",
    "methods": {},
    "version": 1
  },
  "userdoc": {
    "kind": "user",
    "methods": {},
    "version": 1
  }
}