{
  "contractName": "Voting",
  "abi": [
    {
      "inputs": [
        {
          "internalType": "string[]",
          "name": "candidateNames",
          "type": "string[]"
        }
      ],
      "stateMutability": "nonpayable",
      "type": "constructor"
    },
    {
      "inputs": [
        {
          "internalType": "uint256",
          "name": "",
          "type": "uint256"
        }
      ],
      "name": "candidateList",
      "outputs": [
        {
          "internalType": "string",
          "name": "",
          "type": "string"
        }
      ],
      "stateMutability": "view",
      "type": "function",
      "constant": true
    },
    {
      "inputs": [
        {
          "internalType": "string",
          "name": "",
          "type": "string"
        }
      ],
      "name": "votesReceived",
      "outputs": [
        {
          "internalType": "uint8",
          "name": "",
          "type": "uint8"
        }
      ],
      "stateMutability": "view",
      "type": "function",
      "constant": true
    },
    {
      "inputs": [
        {
          "internalType": "string",
          "name": "candidate",
          "type": "string"
        }
      ],
      "name": "totalVotesFor",
      "outputs": [
        {
          "internalType": "uint8",
          "name": "",
          "type": "uint8"
        }
      ],
      "stateMutability": "view",
      "type": "function",
      "constant": true
    },
    {
      "inputs": [
        {
          "internalType": "string",
          "name": "candidate",
          "type": "string"
        }
      ],
      "name": "voteForCandidate",
      "outputs": [],
      "stateMutability": "nonpayable",
      "type": "function"
    }
  ],
  "bytecode": "0x60806040523480156200001157600080fd5b5060405162000ff138038062000ff18339818101604052810190620000379190620003d3565b80600090805190602001906200004f92919062000057565b505062000756565b828054828255906000526020600020908101928215620000a4579160200282015b82811115620000a35782518290816200009291906200066f565b509160200191906001019062000078565b5b509050620000b39190620000b7565b5090565b5b80821115620000db5760008181620000d19190620000df565b50600101620000b8565b5090565b508054620000ed906200045e565b6000825580601f1062000101575062000122565b601f01602090049060005260206000209081019062000121919062000125565b5b50565b5b808211156200014057600081600090555060010162000126565b5090565b6000604051905090565b600080fd5b600080fd5b600080fd5b6000601f19601f8301169050919050565b7f4e487b7100000000000000000000000000000000000000000000000000000000600052604160045260246000fd5b620001a8826200015d565b810181811067ffffffffffffffff82111715620001ca57620001c96200016e565b5b80604052505050565b6000620001df62000144565b9050620001ed82826200019d565b919050565b600067ffffffffffffffff82111562000210576200020f6200016e565b5b602082029050602081019050919050565b600080fd5b600080fd5b600067ffffffffffffffff8211156200024957620002486200016e565b5b62000254826200015d565b9050602081019050919050565b60005b838110156200028157808201518184015260208101905062000264565b60008484015250505050565b6000620002a46200029e846200022b565b620001d3565b905082815260208101848484011115620002c357620002c262000226565b5b620002d084828562000261565b509392505050565b600082601f830112620002f057620002ef62000158565b5b8151620003028482602086016200028d565b91505092915050565b6000620003226200031c84620001f2565b620001d3565b9050808382526020820190506020840283018581111562000348576200034762000221565b5b835b818110156200039657805167ffffffffffffffff81111562000371576200037062000158565b5b808601620003808982620002d8565b855260208501945050506020810190506200034a565b5050509392505050565b600082601f830112620003b857620003b762000158565b5b8151620003ca8482602086016200030b565b91505092915050565b600060208284031215620003ec57620003eb6200014e565b5b600082015167ffffffffffffffff8111156200040d576200040c62000153565b5b6200041b84828501620003a0565b91505092915050565b600081519050919050565b7f4e487b7100000000000000000000000000000000000000000000000000000000600052602260045260246000fd5b600060028204905060018216806200047757607f821691505b6020821081036200048d576200048c6200042f565b5b50919050565b60008190508160005260206000209050919050565b60006020601f8301049050919050565b600082821b905092915050565b600060088302620004f77fffffffffffffffffffffffffffffffffffffffffffffffffffffffffffffffff82620004b8565b620005038683620004b8565b95508019841693508086168417925050509392505050565b6000819050919050565b6000819050919050565b6000620005506200054a62000544846200051b565b62000525565b6200051b565b9050919050565b6000819050919050565b6200056c836200052f565b620005846200057b8262000557565b848454620004c5565b825550505050565b600090565b6200059b6200058c565b620005a881848462000561565b505050565b5b81811015620005d057620005c460008262000591565b600181019050620005ae565b5050565b601f8211156200061f57620005e98162000493565b620005f484620004a8565b8101602085101562000604578190505b6200061c6200061385620004a8565b830182620005ad565b50505b505050565b600082821c905092915050565b6000620006446000198460080262000624565b1980831691505092915050565b60006200065f838362000631565b9150826002028217905092915050565b6200067a8262000424565b67ffffffffffffffff8111156200069657620006956200016e565b5b620006a282546200045e565b620006af828285620005d4565b600060209050601f831160018114620006e75760008415620006d2578287015190505b620006de858262000651565b8655506200074e565b601f198416620006f78662000493565b60005b828110156200072157848901518255600182019150602085019450602081019050620006fa565b868310156200074157848901516200073d601f89168262000631565b8355505b6001600288020188555050505b505050505050565b61088b80620007666000396000f3fe608060405234801561001057600080fd5b506004361061004c5760003560e01c80634a3bf377146100515780638d4b44d914610081578063b13c744b146100b1578063e89927ef146100e1575b600080fd5b61006b60048036038101906100669190610494565b6100fd565b60405161007891906104f9565b60405180910390f35b61009b60048036038101906100969190610494565b610144565b6040516100a891906104f9565b60405180910390f35b6100cb60048036038101906100c6919061054a565b61017a565b6040516100d891906105f6565b60405180910390f35b6100fb60048036038101906100f69190610494565b610226565b005b60006101088261028d565b61011157600080fd5b6001826040516101219190610654565b908152602001604051809103902060009054906101000a900460ff169050919050565b6001818051602081018201805184825260208301602085012081835280955050505050506000915054906101000a900460ff1681565b6000818154811061018a57600080fd5b9060005260206000200160009150905080546101a59061069a565b80601f01602080910402602001604051908101604052809291908181526020018280546101d19061069a565b801561021e5780601f106101f35761010080835404028352916020019161021e565b820191906000526020600020905b81548152906001019060200180831161020157829003601f168201915b505050505081565b61022f8161028d565b61023857600080fd5b600180826040516102499190610654565b908152602001604051809103902060008282829054906101000a900460ff1661027291906106fa565b92506101000a81548160ff021916908360ff16021790555050565b600080600090505b60008054905081101561032f57826040516020016102b39190610654565b60405160208183030381529060405280519060200120600082815481106102dd576102dc61072f565b5b906000526020600020016040516020016102f791906107f6565b604051602081830303815290604052805190602001200361031c576001915050610335565b80806103279061080d565b915050610295565b50600090505b919050565b6000604051905090565b600080fd5b600080fd5b600080fd5b600080fd5b6000601f19601f8301169050919050565b7f4e487b7100000000000000000000000000000000000000000000000000000000600052604160045260246000fd5b6103a182610358565b810181811067ffffffffffffffff821117156103c0576103bf610369565b5b80604052505050565b60006103d361033a565b90506103df8282610398565b919050565b600067ffffffffffffffff8211156103ff576103fe610369565b5b61040882610358565b9050602081019050919050565b82818337600083830152505050565b6000610437610432846103e4565b6103c9565b90508281526020810184848401111561045357610452610353565b5b61045e848285610415565b509392505050565b600082601f83011261047b5761047a61034e565b5b813561048b848260208601610424565b91505092915050565b6000602082840312156104aa576104a9610344565b5b600082013567ffffffffffffffff8111156104c8576104c7610349565b5b6104d484828501610466565b91505092915050565b600060ff82169050919050565b6104f3816104dd565b82525050565b600060208201905061050e60008301846104ea565b92915050565b6000819050919050565b61052781610514565b811461053257600080fd5b50565b6000813590506105448161051e565b92915050565b6000602082840312156105605761055f610344565b5b600061056e84828501610535565b91505092915050565b600081519050919050565b600082825260208201905092915050565b60005b838110156105b1578082015181840152602081019050610596565b60008484015250505050565b60006105c882610577565b6105d28185610582565b93506105e2818560208601610593565b6105eb81610358565b840191505092915050565b6000602082019050818103600083015261061081846105bd565b905092915050565b600081905092915050565b600061062e82610577565b6106388185610618565b9350610648818560208601610593565b80840191505092915050565b60006106608284610623565b915081905092915050565b7f4e487b7100000000000000000000000000000000000000000000000000000000600052602260045260246000fd5b600060028204905060018216806106b257607f821691505b6020821081036106c5576106c461066b565b5b50919050565b7f4e487b7100000000000000000000000000000000000000000000000000000000600052601160045260246000fd5b6000610705826104dd565b9150610710836104dd565b9250828201905060ff811115610729576107286106cb565b5b92915050565b7f4e487b7100000000000000000000000000000000000000000000000000000000600052603260045260246000fd5b60008190508160005260206000209050919050565b600081546107808161069a565b61078a8186610618565b945060018216600081146107a557600181146107ba576107ed565b60ff19831686528115158202860193506107ed565b6107c38561075e565b60005b838110156107e5578154818901526001820191506020810190506107c6565b838801955050505b50505092915050565b60006108028284610773565b915081905092915050565b600061081882610514565b91507fffffffffffffffffffffffffffffffffffffffffffffffffffffffffffffffff820361084a576108496106cb565b5b60018201905091905056fea2646970667358221220cf91e5b9f13f3dc8fbc4cc493c8eca0aa3503145873d16223a0e19fb3924b40e64736f6c63430008110033",
  "immutableReferences": {},
  "source": "// SPDX-License-Identifier: MIT\npragma solidity ^0.8.17;\n\ncontract Voting{\n    string[] public candidateList;\n    mapping(string => uint8) public votesReceived;\n\n    // {\n    //     \" \" : 0,\n    //     \" \" : 2,\n    //     \" \" : 3,\n    // }\n\n    constructor(string[] memory candidateNames){\n        // candidateList   \n        candidateList = candidateNames;\n    }\n\n    //    \n    function totalVotesFor(string memory candidate) public view returns(uint8){\n        require(validCandidate((candidate)));\n        //      \n        return votesReceived[candidate];\n    }\n\n    function voteForCandidate(string memory candidate) public {\n        //   \n        require(validCandidate(candidate));\n        votesReceived[candidate] += 1 ;\n    }\n\n    //     \n    function validCandidate(string memory candidate) private view returns (bool){\n        // candidateList        \n        for (uint256 i = 0; i< candidateList.length; i++){\n            // keccak256()   string  16   .\n            //      keccak256   .( )\n            if(keccak256(abi.encodePacked(candidateList[i])) == keccak256(abi.encodePacked(candidate)))\n            {\n                return true;\n            }\n        }\n        return false;\n    }\n}",
  "sourcePath": "/Users/ssup/Desktop/BlockChain Academy/Class/20221129/2/contracts/Voting.sol",
  "compiler": {
    "name": "solc",
    "version": "0.8.17+commit.8df45f5f.Emscripten.clang"
  },
  "schemaVersion": "3.4.11",
  "updatedAt": "2022-11-29T06:23:06.025Z",
  "networkType": "ethereum",
  "devdoc": {
    "kind": "dev",
    "methods": {},
    "version": 1
  },
  "userdoc": {
    "kind": "user",
    "methods": {},
    "version": 1
  }
}