{
  "contractName": "KGToken",
  "abi": [
    {
      "inputs": [
        {
          "internalType": "string",
          "name": "_name",
          "type": "string"
        },
        {
          "internalType": "string",
          "name": "_symbol",
          "type": "string"
        },
        {
          "internalType": "uint256",
          "name": "_amount",
          "type": "uint256"
        }
      ],
      "stateMutability": "nonpayable",
      "type": "constructor"
    },
    {
      "anonymous": false,
      "inputs": [
        {
          "indexed": false,
          "internalType": "address",
          "name": "owner",
          "type": "address"
        },
        {
          "indexed": false,
          "internalType": "address",
          "name": "spender",
          "type": "address"
        },
        {
          "indexed": false,
          "internalType": "uint256",
          "name": "value",
          "type": "uint256"
        }
      ],
      "name": "Approval",
      "type": "event"
    },
    {
      "anonymous": false,
      "inputs": [
        {
          "indexed": false,
          "internalType": "address",
          "name": "from",
          "type": "address"
        },
        {
          "indexed": false,
          "internalType": "address",
          "name": "to",
          "type": "address"
        },
        {
          "indexed": false,
          "internalType": "uint256",
          "name": "value",
          "type": "uint256"
        }
      ],
      "name": "Transfer",
      "type": "event"
    },
    {
      "inputs": [
        {
          "internalType": "address",
          "name": "",
          "type": "address"
        },
        {
          "internalType": "address",
          "name": "",
          "type": "address"
        }
      ],
      "name": "allowance",
      "outputs": [
        {
          "internalType": "uint256",
          "name": "",
          "type": "uint256"
        }
      ],
      "stateMutability": "view",
      "type": "function",
      "constant": true
    },
    {
      "inputs": [
        {
          "internalType": "address",
          "name": "spender",
          "type": "address"
        },
        {
          "internalType": "uint256",
          "name": "amount",
          "type": "uint256"
        }
      ],
      "name": "approve",
      "outputs": [
        {
          "internalType": "bool",
          "name": "",
          "type": "bool"
        }
      ],
      "stateMutability": "nonpayable",
      "type": "function"
    },
    {
      "inputs": [
        {
          "internalType": "address",
          "name": "account",
          "type": "address"
        }
      ],
      "name": "balanceOf",
      "outputs": [
        {
          "internalType": "uint256",
          "name": "",
          "type": "uint256"
        }
      ],
      "stateMutability": "view",
      "type": "function",
      "constant": true
    },
    {
      "inputs": [
        {
          "internalType": "address",
          "name": "",
          "type": "address"
        }
      ],
      "name": "balances",
      "outputs": [
        {
          "internalType": "uint256",
          "name": "",
          "type": "uint256"
        }
      ],
      "stateMutability": "view",
      "type": "function",
      "constant": true
    },
    {
      "inputs": [
        {
          "internalType": "uint256",
          "name": "amount",
          "type": "uint256"
        }
      ],
      "name": "burn",
      "outputs": [],
      "stateMutability": "nonpayable",
      "type": "function"
    },
    {
      "inputs": [],
      "name": "decimals",
      "outputs": [
        {
          "internalType": "uint256",
          "name": "",
          "type": "uint256"
        }
      ],
      "stateMutability": "view",
      "type": "function",
      "constant": true
    },
    {
      "inputs": [],
      "name": "ethCanBuy",
      "outputs": [
        {
          "internalType": "uint256",
          "name": "",
          "type": "uint256"
        }
      ],
      "stateMutability": "view",
      "type": "function",
      "constant": true
    },
    {
      "inputs": [],
      "name": "name",
      "outputs": [
        {
          "internalType": "string",
          "name": "",
          "type": "string"
        }
      ],
      "stateMutability": "view",
      "type": "function",
      "constant": true
    },
    {
      "inputs": [],
      "name": "owner",
      "outputs": [
        {
          "internalType": "address",
          "name": "",
          "type": "address"
        }
      ],
      "stateMutability": "view",
      "type": "function",
      "constant": true
    },
    {
      "inputs": [],
      "name": "symbol",
      "outputs": [
        {
          "internalType": "string",
          "name": "",
          "type": "string"
        }
      ],
      "stateMutability": "view",
      "type": "function",
      "constant": true
    },
    {
      "inputs": [],
      "name": "totalSupply",
      "outputs": [
        {
          "internalType": "uint256",
          "name": "",
          "type": "uint256"
        }
      ],
      "stateMutability": "view",
      "type": "function",
      "constant": true
    },
    {
      "inputs": [
        {
          "internalType": "address",
          "name": "recipient",
          "type": "address"
        },
        {
          "internalType": "uint256",
          "name": "amount",
          "type": "uint256"
        }
      ],
      "name": "transfer",
      "outputs": [
        {
          "internalType": "bool",
          "name": "",
          "type": "bool"
        }
      ],
      "stateMutability": "nonpayable",
      "type": "function"
    },
    {
      "inputs": [
        {
          "internalType": "address",
          "name": "sender",
          "type": "address"
        },
        {
          "internalType": "address",
          "name": "recipient",
          "type": "address"
        },
        {
          "internalType": "uint256",
          "name": "amount",
          "type": "uint256"
        }
      ],
      "name": "transferFrom",
      "outputs": [
        {
          "internalType": "bool",
          "name": "",
          "type": "bool"
        }
      ],
      "stateMutability": "nonpayable",
      "type": "function"
    },
    {
      "stateMutability": "payable",
      "type": "receive",
      "payable": true
    }
  ],
  "bytecode": "0x6080604052601260025560c86007553480156200001b57600080fd5b5060405162001b4938038062001b4983398181016040528101906200004191906200035f565b33600660006101000a81548173ffffffffffffffffffffffffffffffffffffffff021916908373ffffffffffffffffffffffffffffffffffffffff16021790555082600090816200009391906200063a565b508160019081620000a591906200063a565b50620000d4600254600a620000bb9190620008a4565b82620000c89190620008f5565b620000dd60201b60201c565b50505062000a0e565b80600460003373ffffffffffffffffffffffffffffffffffffffff1673ffffffffffffffffffffffffffffffffffffffff16815260200190815260200160002060008282546200012e919062000940565b92505081905550806003600082825462000149919062000940565b925050819055507fddf252ad1be2c89b69c2b068fc378daa952ba7f163c4a11628f55a4df523b3ef600033836040516200018693929190620009d1565b60405180910390a150565b6000604051905090565b600080fd5b600080fd5b600080fd5b600080fd5b6000601f19601f8301169050919050565b7f4e487b7100000000000000000000000000000000000000000000000000000000600052604160045260246000fd5b620001fa82620001af565b810181811067ffffffffffffffff821117156200021c576200021b620001c0565b5b80604052505050565b60006200023162000191565b90506200023f8282620001ef565b919050565b600067ffffffffffffffff821115620002625762000261620001c0565b5b6200026d82620001af565b9050602081019050919050565b60005b838110156200029a5780820151818401526020810190506200027d565b60008484015250505050565b6000620002bd620002b78462000244565b62000225565b905082815260208101848484011115620002dc57620002db620001aa565b5b620002e98482856200027a565b509392505050565b600082601f830112620003095762000308620001a5565b5b81516200031b848260208601620002a6565b91505092915050565b6000819050919050565b620003398162000324565b81146200034557600080fd5b50565b60008151905062000359816200032e565b92915050565b6000806000606084860312156200037b576200037a6200019b565b5b600084015167ffffffffffffffff8111156200039c576200039b620001a0565b5b620003aa86828701620002f1565b935050602084015167ffffffffffffffff811115620003ce57620003cd620001a0565b5b620003dc86828701620002f1565b9250506040620003ef8682870162000348565b9150509250925092565b600081519050919050565b7f4e487b7100000000000000000000000000000000000000000000000000000000600052602260045260246000fd5b600060028204905060018216806200044c57607f821691505b60208210810362000462576200046162000404565b5b50919050565b60008190508160005260206000209050919050565b60006020601f8301049050919050565b600082821b905092915050565b600060088302620004cc7fffffffffffffffffffffffffffffffffffffffffffffffffffffffffffffffff826200048d565b620004d886836200048d565b95508019841693508086168417925050509392505050565b6000819050919050565b60006200051b620005156200050f8462000324565b620004f0565b62000324565b9050919050565b6000819050919050565b6200053783620004fa565b6200054f620005468262000522565b8484546200049a565b825550505050565b600090565b6200056662000557565b620005738184846200052c565b505050565b5b818110156200059b576200058f6000826200055c565b60018101905062000579565b5050565b601f821115620005ea57620005b48162000468565b620005bf846200047d565b81016020851015620005cf578190505b620005e7620005de856200047d565b83018262000578565b50505b505050565b600082821c905092915050565b60006200060f60001984600802620005ef565b1980831691505092915050565b60006200062a8383620005fc565b9150826002028217905092915050565b6200064582620003f9565b67ffffffffffffffff811115620006615762000660620001c0565b5b6200066d825462000433565b6200067a8282856200059f565b600060209050601f831160018114620006b257600084156200069d578287015190505b620006a985826200061c565b86555062000719565b601f198416620006c28662000468565b60005b82811015620006ec57848901518255600182019150602085019450602081019050620006c5565b868310156200070c578489015162000708601f891682620005fc565b8355505b6001600288020188555050505b505050505050565b7f4e487b7100000000000000000000000000000000000000000000000000000000600052601160045260246000fd5b60008160011c9050919050565b6000808291508390505b6001851115620007af5780860481111562000787576200078662000721565b5b6001851615620007975780820291505b8081029050620007a78562000750565b945062000767565b94509492505050565b600082620007ca57600190506200089d565b81620007da57600090506200089d565b8160018114620007f35760028114620007fe5762000834565b60019150506200089d565b60ff84111562000813576200081262000721565b5b8360020a9150848211156200082d576200082c62000721565b5b506200089d565b5060208310610133831016604e8410600b84101617156200086e5782820a90508381111562000868576200086762000721565b5b6200089d565b6200087d84848460016200075d565b9250905081840481111562000897576200089662000721565b5b81810290505b9392505050565b6000620008b18262000324565b9150620008be8362000324565b9250620008ed7fffffffffffffffffffffffffffffffffffffffffffffffffffffffffffffffff8484620007b8565b905092915050565b6000620009028262000324565b91506200090f8362000324565b92508282026200091f8162000324565b9150828204841483151762000939576200093862000721565b5b5092915050565b60006200094d8262000324565b91506200095a8362000324565b925082820190508082111562000975576200097462000721565b5b92915050565b600073ffffffffffffffffffffffffffffffffffffffff82169050919050565b6000620009a8826200097b565b9050919050565b620009ba816200099b565b82525050565b620009cb8162000324565b82525050565b6000606082019050620009e86000830186620009af565b620009f76020830185620009af565b62000a066040830184620009c0565b949350505050565b61112b8062000a1e6000396000f3fe6080604052600436106100c65760003560e01c806331b0a2c61161007f5780638da5cb5b116100595780638da5cb5b146104b257806395d89b41146104dd578063a9059cbb14610508578063dd62ed3e14610545576102e4565b806331b0a2c61461042157806342966c681461044c57806370a0823114610475576102e4565b806306fdde03146102e9578063095ea7b31461031457806318160ddd1461035157806323b872dd1461037c57806327e235e3146103b9578063313ce567146103f6576102e4565b366102e457600034036100d857600080fd5b6000600754346100e89190610cbc565b90508060046000600660009054906101000a900473ffffffffffffffffffffffffffffffffffffffff1673ffffffffffffffffffffffffffffffffffffffff1673ffffffffffffffffffffffffffffffffffffffff16815260200190815260200160002054101561015857600080fd5b8060046000600660009054906101000a900473ffffffffffffffffffffffffffffffffffffffff1673ffffffffffffffffffffffffffffffffffffffff1673ffffffffffffffffffffffffffffffffffffffff16815260200190815260200160002060008282546101c99190610cfe565b9250508190555080600460003373ffffffffffffffffffffffffffffffffffffffff1673ffffffffffffffffffffffffffffffffffffffff168152602001908152602001600020600082825461021f9190610d32565b92505081905550600660009054906101000a900473ffffffffffffffffffffffffffffffffffffffff1673ffffffffffffffffffffffffffffffffffffffff163373ffffffffffffffffffffffffffffffffffffffff16036102855761028481610582565b5b7fddf252ad1be2c89b69c2b068fc378daa952ba7f163c4a11628f55a4df523b3ef600660009054906101000a900473ffffffffffffffffffffffffffffffffffffffff1633836040516102da93929190610db6565b60405180910390a1005b600080fd5b3480156102f557600080fd5b506102fe610630565b60405161030b9190610e7d565b60405180910390f35b34801561032057600080fd5b5061033b60048036038101906103369190610efc565b6106be565b6040516103489190610f57565b60405180910390f35b34801561035d57600080fd5b50610366610786565b6040516103739190610f72565b60405180910390f35b34801561038857600080fd5b506103a3600480360381019061039e9190610f8d565b61078c565b6040516103b09190610f57565b60405180910390f35b3480156103c557600080fd5b506103e060048036038101906103db9190610fe0565b61099c565b6040516103ed9190610f72565b60405180910390f35b34801561040257600080fd5b5061040b6109b4565b6040516104189190610f72565b60405180910390f35b34801561042d57600080fd5b506104366109ba565b6040516104439190610f72565b60405180910390f35b34801561045857600080fd5b50610473600480360381019061046e919061100d565b6109c0565b005b34801561048157600080fd5b5061049c60048036038101906104979190610fe0565b610a6e565b6040516104a99190610f72565b60405180910390f35b3480156104be57600080fd5b506104c7610ab7565b6040516104d4919061103a565b60405180910390f35b3480156104e957600080fd5b506104f2610add565b6040516104ff9190610e7d565b60405180910390f35b34801561051457600080fd5b5061052f600480360381019061052a9190610efc565b610b6b565b60405161053c9190610f57565b60405180910390f35b34801561055157600080fd5b5061056c60048036038101906105679190611055565b610c5e565b6040516105799190610f72565b60405180910390f35b80600460003373ffffffffffffffffffffffffffffffffffffffff1673ffffffffffffffffffffffffffffffffffffffff16815260200190815260200160002060008282546105d19190610d32565b9250508190555080600360008282546105ea9190610d32565b925050819055507fddf252ad1be2c89b69c2b068fc378daa952ba7f163c4a11628f55a4df523b3ef6000338360405161062593929190610db6565b60405180910390a150565b6000805461063d906110c4565b80601f0160208091040260200160405190810160405280929190818152602001828054610669906110c4565b80156106b65780601f1061068b576101008083540402835291602001916106b6565b820191906000526020600020905b81548152906001019060200180831161069957829003601f168201915b505050505081565b600081600560003373ffffffffffffffffffffffffffffffffffffffff1673ffffffffffffffffffffffffffffffffffffffff16815260200190815260200160002060008573ffffffffffffffffffffffffffffffffffffffff1673ffffffffffffffffffffffffffffffffffffffff168152602001908152602001600020819055507f8c5be1e5ebec7d5bd14f71427d1e84f3dd0314c0f7b2291e5b200ac8c7c3b92533848460405161077493929190610db6565b60405180910390a16001905092915050565b60035481565b600081600560008673ffffffffffffffffffffffffffffffffffffffff1673ffffffffffffffffffffffffffffffffffffffff16815260200190815260200160002060003373ffffffffffffffffffffffffffffffffffffffff1673ffffffffffffffffffffffffffffffffffffffff16815260200190815260200160002054101561081757600080fd5b81600560008673ffffffffffffffffffffffffffffffffffffffff1673ffffffffffffffffffffffffffffffffffffffff16815260200190815260200160002060003373ffffffffffffffffffffffffffffffffffffffff1673ffffffffffffffffffffffffffffffffffffffff16815260200190815260200160002060008282546108a39190610cfe565b9250508190555081600460008673ffffffffffffffffffffffffffffffffffffffff1673ffffffffffffffffffffffffffffffffffffffff16815260200190815260200160002060008282546108f99190610cfe565b9250508190555081600460008573ffffffffffffffffffffffffffffffffffffffff1673ffffffffffffffffffffffffffffffffffffffff168152602001908152602001600020600082825461094f9190610d32565b925050819055507fddf252ad1be2c89b69c2b068fc378daa952ba7f163c4a11628f55a4df523b3ef84848460405161098993929190610db6565b60405180910390a1600190509392505050565b60046020528060005260406000206000915090505481565b60025481565b60075481565b80600460003373ffffffffffffffffffffffffffffffffffffffff1673ffffffffffffffffffffffffffffffffffffffff1681526020019081526020016000206000828254610a0f9190610cfe565b925050819055508060036000828254610a289190610cfe565b925050819055507fddf252ad1be2c89b69c2b068fc378daa952ba7f163c4a11628f55a4df523b3ef33600083604051610a6393929190610db6565b60405180910390a150565b6000600460008373ffffffffffffffffffffffffffffffffffffffff1673ffffffffffffffffffffffffffffffffffffffff168152602001908152602001600020549050919050565b600660009054906101000a900473ffffffffffffffffffffffffffffffffffffffff1681565b60018054610aea906110c4565b80601f0160208091040260200160405190810160405280929190818152602001828054610b16906110c4565b8015610b635780601f10610b3857610100808354040283529160200191610b63565b820191906000526020600020905b815481529060010190602001808311610b4657829003601f168201915b505050505081565b600081600460003373ffffffffffffffffffffffffffffffffffffffff1673ffffffffffffffffffffffffffffffffffffffff1681526020019081526020016000206000828254610bbc9190610cfe565b9250508190555081600460008573ffffffffffffffffffffffffffffffffffffffff1673ffffffffffffffffffffffffffffffffffffffff1681526020019081526020016000206000828254610c129190610d32565b925050819055507fddf252ad1be2c89b69c2b068fc378daa952ba7f163c4a11628f55a4df523b3ef338484604051610c4c93929190610db6565b60405180910390a16001905092915050565b6005602052816000526040600020602052806000526040600020600091509150505481565b6000819050919050565b7f4e487b7100000000000000000000000000000000000000000000000000000000600052601160045260246000fd5b6000610cc782610c83565b9150610cd283610c83565b9250828202610ce081610c83565b91508282048414831517610cf757610cf6610c8d565b5b5092915050565b6000610d0982610c83565b9150610d1483610c83565b9250828203905081811115610d2c57610d2b610c8d565b5b92915050565b6000610d3d82610c83565b9150610d4883610c83565b9250828201905080821115610d6057610d5f610c8d565b5b92915050565b600073ffffffffffffffffffffffffffffffffffffffff82169050919050565b6000610d9182610d66565b9050919050565b610da181610d86565b82525050565b610db081610c83565b82525050565b6000606082019050610dcb6000830186610d98565b610dd86020830185610d98565b610de56040830184610da7565b949350505050565b600081519050919050565b600082825260208201905092915050565b60005b83811015610e27578082015181840152602081019050610e0c565b60008484015250505050565b6000601f19601f8301169050919050565b6000610e4f82610ded565b610e598185610df8565b9350610e69818560208601610e09565b610e7281610e33565b840191505092915050565b60006020820190508181036000830152610e978184610e44565b905092915050565b600080fd5b610ead81610d86565b8114610eb857600080fd5b50565b600081359050610eca81610ea4565b92915050565b610ed981610c83565b8114610ee457600080fd5b50565b600081359050610ef681610ed0565b92915050565b60008060408385031215610f1357610f12610e9f565b5b6000610f2185828601610ebb565b9250506020610f3285828601610ee7565b9150509250929050565b60008115159050919050565b610f5181610f3c565b82525050565b6000602082019050610f6c6000830184610f48565b92915050565b6000602082019050610f876000830184610da7565b92915050565b600080600060608486031215610fa657610fa5610e9f565b5b6000610fb486828701610ebb565b9350506020610fc586828701610ebb565b9250506040610fd686828701610ee7565b9150509250925092565b600060208284031215610ff657610ff5610e9f565b5b600061100484828501610ebb565b91505092915050565b60006020828403121561102357611022610e9f565b5b600061103184828501610ee7565b91505092915050565b600060208201905061104f6000830184610d98565b92915050565b6000806040838503121561106c5761106b610e9f565b5b600061107a85828601610ebb565b925050602061108b85828601610ebb565b9150509250929050565b7f4e487b7100000000000000000000000000000000000000000000000000000000600052602260045260246000fd5b600060028204905060018216806110dc57607f821691505b6020821081036110ef576110ee611095565b5b5091905056fea26469706673582212205197ccd542c988f93de4622babee353d26eae01c00d4fafc83362508ef3439c064736f6c63430008110033",
  "immutableReferences": {},
  "source": "//SPDX-License-Identifier: MIT\r\npragma solidity ^0.8.17;\r\n\r\n\r\nimport './ERC20.sol';\r\n\r\n//   is KGToken ERC20 \r\ncontract KGToken is ERC20 {\r\n    address public owner;  //      \r\n    uint256 public ethCanBuy = 200; // 1 ETH  200    \r\n\r\n    constructor(string memory _name, string memory _symbol, uint256 _amount){\r\n        // ERC20 \r\n        owner = msg.sender;\r\n        name = _name;\r\n        symbol = _symbol;\r\n\r\n        // mint  \r\n        mint(_amount * (10 ** uint256(decimals)));\r\n    }\r\n\r\n    //  \r\n    // receive :   CA    \r\n    // external        \r\n    \r\n    receive() external payable{\r\n        // require true  false \r\n\r\n        require(msg.value !=0);\r\n        uint amount = msg.value * ethCanBuy;\r\n\r\n        require(balances[owner] >= amount);\r\n        balances[owner] -= amount;\r\n        balances[msg.sender] += amount;\r\n\r\n\r\n    //  CA   \r\n        if(msg.sender == owner){\r\n            mint(amount);\r\n        }\r\n\r\n        emit Transfer(owner, msg.sender, amount);\r\n    }\r\n}",
  "sourcePath": "/Users/ssup/Desktop/BlockChain Academy/Class/20221202/contracts/Token.sol",
  "compiler": {
    "name": "solc",
    "version": "0.8.17+commit.8df45f5f.Emscripten.clang"
  },
  "schemaVersion": "3.4.11",
  "updatedAt": "2022-12-05T05:27:54.278Z",
  "networkType": "ethereum",
  "devdoc": {
    "kind": "dev",
    "methods": {},
    "version": 1
  },
  "userdoc": {
    "kind": "user",
    "methods": {},
    "version": 1
  }
}