{
  "contractName": "Test2",
  "abi": [
    {
      "inputs": [
        {
          "internalType": "uint256",
          "name": "v",
          "type": "uint256"
        }
      ],
      "stateMutability": "nonpayable",
      "type": "constructor"
    },
    {
      "inputs": [],
      "name": "owner",
      "outputs": [
        {
          "internalType": "address",
          "name": "",
          "type": "address"
        }
      ],
      "stateMutability": "view",
      "type": "function",
      "constant": true
    },
    {
      "inputs": [],
      "name": "value",
      "outputs": [
        {
          "internalType": "uint256",
          "name": "",
          "type": "uint256"
        }
      ],
      "stateMutability": "view",
      "type": "function",
      "constant": true
    }
  ],
  "bytecode": "0x608060405234801561001057600080fd5b50604051610260380380610260833981810160405281019061003291906100bb565b8060008190555033600160006101000a81548173ffffffffffffffffffffffffffffffffffffffff021916908373ffffffffffffffffffffffffffffffffffffffff160217905550506100e8565b600080fd5b6000819050919050565b61009881610085565b81146100a357600080fd5b50565b6000815190506100b58161008f565b92915050565b6000602082840312156100d1576100d0610080565b5b60006100df848285016100a6565b91505092915050565b610169806100f76000396000f3fe608060405234801561001057600080fd5b50600436106100365760003560e01c80633fa4f2451461003b5780638da5cb5b14610059575b600080fd5b610043610077565b60405161005091906100bc565b60405180910390f35b61006161007d565b60405161006e9190610118565b60405180910390f35b60005481565b600160009054906101000a900473ffffffffffffffffffffffffffffffffffffffff1681565b6000819050919050565b6100b6816100a3565b82525050565b60006020820190506100d160008301846100ad565b92915050565b600073ffffffffffffffffffffffffffffffffffffffff82169050919050565b6000610102826100d7565b9050919050565b610112816100f7565b82525050565b600060208201905061012d6000830184610109565b9291505056fea264697066735822122088880be643672d3ba9bac9ad25f3179e2355d6fcd6cabbb95ee43c6dae6c500364736f6c63430008110033",
  "immutableReferences": {},
  "source": " // SPDX-License-Identifier: MIT\npragma solidity ^0.8.17;\n\ncontract Test2{\n        uint256 public value;\n        address public owner;\n\n        constructor(uint256 v){\n            value = v;\n            owner = msg.sender; // 처음에 배포할때 실행한 사람의 EOA\n        }\n\n        // msg.sender\n        // 이후 컨트렉트 실행시킨 사람의 계정 EOA\n}",
  "sourcePath": "/Users/ssup/Desktop/BlockChain Academy/Class/20221129/contracts/test2.sol",
  "compiler": {
    "name": "solc",
    "version": "0.8.17+commit.8df45f5f.Emscripten.clang"
  },
  "schemaVersion": "3.4.11",
  "updatedAt": "2022-11-29T03:01:52.809Z",
  "networkType": "ethereum",
  "devdoc": {
    "kind": "dev",
    "methods": {},
    "version": 1
  },
  "userdoc": {
    "kind": "user",
    "methods": {},
    "version": 1
  }
}