{
  "contractName": "Token",
  "abi": [
    {
      "inputs": [],
      "stateMutability": "nonpayable",
      "type": "constructor"
    },
    {
      "inputs": [
        {
          "internalType": "address",
          "name": "",
          "type": "address"
        }
      ],
      "name": "balances",
      "outputs": [
        {
          "internalType": "uint256",
          "name": "",
          "type": "uint256"
        }
      ],
      "stateMutability": "view",
      "type": "function",
      "constant": true
    },
    {
      "inputs": [],
      "name": "decimals",
      "outputs": [
        {
          "internalType": "uint8",
          "name": "",
          "type": "uint8"
        }
      ],
      "stateMutability": "view",
      "type": "function",
      "constant": true
    },
    {
      "inputs": [],
      "name": "name",
      "outputs": [
        {
          "internalType": "string",
          "name": "",
          "type": "string"
        }
      ],
      "stateMutability": "view",
      "type": "function",
      "constant": true
    },
    {
      "inputs": [],
      "name": "symbol",
      "outputs": [
        {
          "internalType": "string",
          "name": "",
          "type": "string"
        }
      ],
      "stateMutability": "view",
      "type": "function",
      "constant": true
    },
    {
      "inputs": [],
      "name": "totalSupply",
      "outputs": [
        {
          "internalType": "uint256",
          "name": "",
          "type": "uint256"
        }
      ],
      "stateMutability": "view",
      "type": "function",
      "constant": true
    },
    {
      "inputs": [
        {
          "internalType": "address",
          "name": "owner",
          "type": "address"
        }
      ],
      "name": "balanceOf",
      "outputs": [
        {
          "internalType": "uint256",
          "name": "balance",
          "type": "uint256"
        }
      ],
      "stateMutability": "view",
      "type": "function",
      "constant": true
    },
    {
      "inputs": [
        {
          "internalType": "address",
          "name": "from",
          "type": "address"
        },
        {
          "internalType": "address",
          "name": "to",
          "type": "address"
        },
        {
          "internalType": "uint256",
          "name": "value",
          "type": "uint256"
        }
      ],
      "name": "transfer",
      "outputs": [
        {
          "internalType": "bool",
          "name": "success",
          "type": "bool"
        }
      ],
      "stateMutability": "nonpayable",
      "type": "function"
    }
  ],
  "bytecode": "0x60806040526040518060400160405280600981526020017f53656f7020436f696e0000000000000000000000000000000000000000000000815250600190816200004a9190620003b1565b506040518060400160405280600381526020017f534550000000000000000000000000000000000000000000000000000000000081525060029081620000919190620003b1565b506012600360006101000a81548160ff021916908360ff160217905550600360009054906101000a900460ff16600a620000cc919062000628565b612710620000db919062000679565b600455348015620000eb57600080fd5b506004546000803373ffffffffffffffffffffffffffffffffffffffff1673ffffffffffffffffffffffffffffffffffffffff16815260200190815260200160002081905550620006c4565b600081519050919050565b7f4e487b7100000000000000000000000000000000000000000000000000000000600052604160045260246000fd5b7f4e487b7100000000000000000000000000000000000000000000000000000000600052602260045260246000fd5b60006002820490506001821680620001b957607f821691505b602082108103620001cf57620001ce62000171565b5b50919050565b60008190508160005260206000209050919050565b60006020601f8301049050919050565b600082821b905092915050565b600060088302620002397fffffffffffffffffffffffffffffffffffffffffffffffffffffffffffffffff82620001fa565b620002458683620001fa565b95508019841693508086168417925050509392505050565b6000819050919050565b6000819050919050565b6000620002926200028c62000286846200025d565b62000267565b6200025d565b9050919050565b6000819050919050565b620002ae8362000271565b620002c6620002bd8262000299565b84845462000207565b825550505050565b600090565b620002dd620002ce565b620002ea818484620002a3565b505050565b5b81811015620003125762000306600082620002d3565b600181019050620002f0565b5050565b601f82111562000361576200032b81620001d5565b6200033684620001ea565b8101602085101562000346578190505b6200035e6200035585620001ea565b830182620002ef565b50505b505050565b600082821c905092915050565b6000620003866000198460080262000366565b1980831691505092915050565b6000620003a1838362000373565b9150826002028217905092915050565b620003bc8262000137565b67ffffffffffffffff811115620003d857620003d762000142565b5b620003e48254620001a0565b620003f182828562000316565b600060209050601f83116001811462000429576000841562000414578287015190505b62000420858262000393565b86555062000490565b601f1984166200043986620001d5565b60005b8281101562000463578489015182556001820191506020850194506020810190506200043c565b868310156200048357848901516200047f601f89168262000373565b8355505b6001600288020188555050505b505050505050565b7f4e487b7100000000000000000000000000000000000000000000000000000000600052601160045260246000fd5b60008160011c9050919050565b6000808291508390505b60018511156200052657808604811115620004fe57620004fd62000498565b5b60018516156200050e5780820291505b80810290506200051e85620004c7565b9450620004de565b94509492505050565b60008262000541576001905062000614565b8162000551576000905062000614565b81600181146200056a57600281146200057557620005ab565b600191505062000614565b60ff8411156200058a576200058962000498565b5b8360020a915084821115620005a457620005a362000498565b5b5062000614565b5060208310610133831016604e8410600b8410161715620005e55782820a905083811115620005df57620005de62000498565b5b62000614565b620005f48484846001620004d4565b925090508184048111156200060e576200060d62000498565b5b81810290505b9392505050565b600060ff82169050919050565b600062000635826200025d565b915062000642836200061b565b9250620006717fffffffffffffffffffffffffffffffffffffffffffffffffffffffffffffffff84846200052f565b905092915050565b600062000686826200025d565b915062000693836200025d565b9250828202620006a3816200025d565b91508282048414831517620006bd57620006bc62000498565b5b5092915050565b6107b080620006d46000396000f3fe608060405234801561001057600080fd5b506004361061007d5760003560e01c8063313ce5671161005b578063313ce567146100ee57806370a082311461010c57806395d89b411461013c578063beabacc81461015a5761007d565b806306fdde031461008257806318160ddd146100a057806327e235e3146100be575b600080fd5b61008a61018a565b60405161009791906104b1565b60405180910390f35b6100a8610218565b6040516100b591906104ec565b60405180910390f35b6100d860048036038101906100d3919061056a565b61021e565b6040516100e591906104ec565b60405180910390f35b6100f6610236565b60405161010391906105b3565b60405180910390f35b6101266004803603810190610121919061056a565b610249565b60405161013391906104ec565b60405180910390f35b610144610291565b60405161015191906104b1565b60405180910390f35b610174600480360381019061016f91906105fa565b61031f565b6040516101819190610668565b60405180910390f35b60018054610197906106b2565b80601f01602080910402602001604051908101604052809291908181526020018280546101c3906106b2565b80156102105780601f106101e557610100808354040283529160200191610210565b820191906000526020600020905b8154815290600101906020018083116101f357829003601f168201915b505050505081565b60045481565b60006020528060005260406000206000915090505481565b600360009054906101000a900460ff1681565b60008060008373ffffffffffffffffffffffffffffffffffffffff1673ffffffffffffffffffffffffffffffffffffffff168152602001908152602001600020549050919050565b6002805461029e906106b2565b80601f01602080910402602001604051908101604052809291908181526020018280546102ca906106b2565b80156103175780601f106102ec57610100808354040283529160200191610317565b820191906000526020600020905b8154815290600101906020018083116102fa57829003601f168201915b505050505081565b6000816000808673ffffffffffffffffffffffffffffffffffffffff1673ffffffffffffffffffffffffffffffffffffffff16815260200190815260200160002054101561036c57600080fd5b816000808673ffffffffffffffffffffffffffffffffffffffff1673ffffffffffffffffffffffffffffffffffffffff16815260200190815260200160002060008282546103ba9190610712565b92505081905550816000808573ffffffffffffffffffffffffffffffffffffffff1673ffffffffffffffffffffffffffffffffffffffff168152602001908152602001600020600082825461040f9190610746565b92505081905550600190509392505050565b600081519050919050565b600082825260208201905092915050565b60005b8381101561045b578082015181840152602081019050610440565b60008484015250505050565b6000601f19601f8301169050919050565b600061048382610421565b61048d818561042c565b935061049d81856020860161043d565b6104a681610467565b840191505092915050565b600060208201905081810360008301526104cb8184610478565b905092915050565b6000819050919050565b6104e6816104d3565b82525050565b600060208201905061050160008301846104dd565b92915050565b600080fd5b600073ffffffffffffffffffffffffffffffffffffffff82169050919050565b60006105378261050c565b9050919050565b6105478161052c565b811461055257600080fd5b50565b6000813590506105648161053e565b92915050565b6000602082840312156105805761057f610507565b5b600061058e84828501610555565b91505092915050565b600060ff82169050919050565b6105ad81610597565b82525050565b60006020820190506105c860008301846105a4565b92915050565b6105d7816104d3565b81146105e257600080fd5b50565b6000813590506105f4816105ce565b92915050565b60008060006060848603121561061357610612610507565b5b600061062186828701610555565b935050602061063286828701610555565b9250506040610643868287016105e5565b9150509250925092565b60008115159050919050565b6106628161064d565b82525050565b600060208201905061067d6000830184610659565b92915050565b7f4e487b7100000000000000000000000000000000000000000000000000000000600052602260045260246000fd5b600060028204905060018216806106ca57607f821691505b6020821081036106dd576106dc610683565b5b50919050565b7f4e487b7100000000000000000000000000000000000000000000000000000000600052601160045260246000fd5b600061071d826104d3565b9150610728836104d3565b92508282039050818111156107405761073f6106e3565b5b92915050565b6000610751826104d3565b915061075c836104d3565b9250828201905080821115610774576107736106e3565b5b9291505056fea2646970667358221220b1da34222fd46a43c89862d1cf79432987badd2ea8c8656192db3de804a2fd8c64736f6c63430008110033",
  "immutableReferences": {},
  "source": " // SPDX-License-Identifier: MIT\npragma solidity ^0.8.17;\n\ncontract Token{\n    mapping(address => uint256) public balances;\n    // address: (), uint256 (), balances: ( )\n    //       .\n    string public name = \"Seop Coin\"; //  \n    string public symbol = \"SEP\"; // \n    uint8 public decimals = 18; // \n    uint256 public totalSupply = 10000 * 10 ** decimals; // ()\n    //    .\n\n    constructor(){\n        balances[msg.sender] = totalSupply;\n    }\n\n    //   \n    function balanceOf(address owner) public view returns(uint256 balance){\n        //    owner\n        return balances[owner];\n    }\n\n    //   \n    // function transfer(address to, uint256 value) public returns(bool success){\n    //     // require()   true   false \n    //     require(balances[msg.sender] >= value);\n    //     // msg.sender     \n    //     balances[msg.sender] -= value;\n    //     balances[to] += value;\n    //     return true;\n    // }\n\n    function transfer(address from, address to, uint256 value) public returns(bool success){\n        require(balances[from] >= value);\n        balances[from] -= value;\n        balances[to] += value;\n        return true;\n    }\n\n    // CA 0xBF6d2173DcB4429f81033245D66be70340C5f77C\n}",
  "sourcePath": "/Users/ssup/Desktop/BlockChain Academy/Class/20221129/contracts/Token.sol",
  "compiler": {
    "name": "solc",
    "version": "0.8.17+commit.8df45f5f.Emscripten.clang"
  },
  "schemaVersion": "3.4.11",
  "updatedAt": "2022-11-29T03:01:53.026Z",
  "networkType": "ethereum",
  "devdoc": {
    "kind": "dev",
    "methods": {},
    "version": 1
  },
  "userdoc": {
    "kind": "user",
    "methods": {},
    "version": 1
  }
}